:020000040000FA
:10000000900120207D01000081010000830100009B
:1000100000000000000000000000000000000000E0
:10002000000000000000000000000000850100004A
:1000300000000000000000008701000089010000AE
:100040008B0100008B0100008B0100008B01000080
:100050008B0100008B0100008B0100008B01000070
:100060008B0100008B0100008B0100008B01000060
:100070008B0100008B0100008B0100008B01000050
:100080008B0100008B0100008B0100008B01000040
:100090008B0100008B0100008B0100008B01000030
:1000A0008B0100008B0100008B0100008B01000020
:1000B0008B0100008B0100008B0100008B01000010
:1000C00000F002F800F04AF812A030C808382418EE
:1000D0002D18AC4201D100F041F80FCCA246AB463E
:1000E0000CA730CF2D1B083F3F197C427F1E544484
:1000F0002D090426F441641EAC4201D300F02EF811
:100100000126334200D0FB1A3343984754465D46DC
:10011000DFE700008C0B00009C0B000000000000DB
:100120007047000000000000002300240025002686
:10013000103A01D378C1FBD8520700D330C100D5A3
:100140000B60704710B5782902D100F075F810BD2A
:10015000002010BD1FB51FBD10B510BD00F0B0F9D7
:100160001146FFF7F7FF00F077FC00F0C8F903B481
:10017000FFF7F2FF03BC00F0CFF90000064800478C
:10018000FEE7FEE7FEE7FEE7FEE7FEE70348044979
:10019000024A044B70470000C1000000900020207C
:1001A00090012020900020200FB41CB50C0007AA5D
:1001B000009007D04142A14202D30019401E01E045
:1001C0000020C043074B7B4469460190069800F02D
:1001D0005CF90020002C01D0009908701CBC08BC00
:1001E00004B01847E702000070B50446856900684E
:1001F000C10601D5302600E02026C00707D070BD1B
:1002000062683046A1689047206A401C20626D1EDB
:10021000F6D570BD70B5044685690078C00707D172
:1002200070BD6268A16820209047206A401C20624F
:100230006D1EF6D570BD000070B504460D46214612
:100240001068C046C0462188090502D50F4A7A4485
:1002500002E00E4A7A440E3223460021243305E0A0
:1002600006070009360F965D5E54491C0028F7D139
:1002700020780023000705D5702D03D0002901D078
:1002800002231132204600F0A2F870BD080A0000D7
:10029000F3B50446002081B020622046E16888471B
:1002A00000287DD0252802D06268A16883E0454FF0
:1002B00000257F442046E16888472028064608DB61
:1002C000312E06D2B81920380078002801D0054315
:1002D000F0E7A80701D5042085430020E061074628
:1002E000A0612A2E0AD0304600F0B0FC002827D0AA
:1002F000B8000019303E0090866119E00298BA00FB
:10030000121902C8916102902046E1688847012FC6
:10031000064617D1E06900281FDA202085431CE03B
:1003200000980A2180694843009980193038886113
:100330002046E1688847064600F088FC0028EFD197
:10034000012F0AD02E2E08D12046E16888470646A4
:10035000202005437F1C022FC3DBA069002803DA9D
:100360004042A06101200543E80701D010208543E9
:10037000002E24D030464138192803D80120C0026D
:1003800005432036204625603146029A1546FFF780
:10039000D9FE00280CD0012807D0ED1DE80800E0A8
:1003A0000DE0C0000830029077E72D1D029574E73C
:1003B00062683046A1689047206A401C6CE7206A5A
:1003C000FEBD0000CC090000704770477047FFB5C4
:1003D00004460D4681B0243000902168880604D57B
:1003E0001022E0699143216000E00120A84201DD74
:1003F000471B00E000270498A1697A191018081A11
:10040000A0612078C00602D42046FFF7EDFE00264A
:1004100008E003986268A168805D9047206A401CEC
:10042000761C206204988642F3DB2078C0060AD549
:100430002046FFF7D9FE06E06268A16830209047A9
:10044000206A401C206238467F1E0028F4DC07E04A
:1004500000986268A168405D9047206A401C206255
:1004600028466D1E0028F3DC2046FFF7D3FE2078D7
:10047000000602D5022005B0F0BD0120FBE7000018
:1004800001694A1C02610878704700B58FB002917B
:100490000021059105490193794403911146049087
:1004A0006846FFF7F5FE0FB000BD0000E5FFFFFF57
:1004B0000CC908399A4202D2531C0B601070704765
:1004C000754600F025F8AE46050069465346C0085B
:1004D000C000854618B020B5FFF758FE60BCB64690
:1004E00000260027C0C5C0C5C0C5C0C5C0C5C0C5A1
:1004F000C0C5C0C5403D490849008D46704710B58C
:100500000446C046C0462046FFF731FE10BD00003D
:10051000004870470000202001491820ABBEFEE7CC
:1005200026000200704700000021002809D07A4A06
:100530001378002B07D15378002B04D19378002B2C
:1005400001D10846704791788170517841701178D7
:1005500001700020907050701070012108467047A3
:1005600070B575490020C87188808870C87388810B
:100570008872C875888288746E4A13685B06DB0FC0
:100580004B700B708B711368DBB2DB094B720B7213
:100590008B731368DB05DC0F4C740C7415681368DF
:1005A0005B04DB0F20268B558C75C8778883887693
:1005B000AC05E40F4C760C768C770C462034E07159
:1005C0008884A0706370A371534988704870087064
:1005D0001068106870BDC046F0B582B04E484178D2
:1005E00000910078019000234CA40125514F05E0B3
:1005F000427200218172AD1C0834103320683E68BD
:100600000640701E324682414B48C01841789142E4
:100610000ED18178032903D84F1C8770032905D197
:10062000691E0778974232D1002E44D0414F02E034
:10063000427000218170202B6CD0626839681140B3
:100640004E1E0A46B241467A9642D1D1867A032E90
:1006500004D8771C8772374F032ECCD1067A964286
:1006600020D10029C7D18189314A914203D04A1C47
:1006700082817729BFD3C17B0029BCD10121C173FD
:10068000A940009A0A43244800924270B3E72A4FD7
:10069000FA540022C2718280002E21D00121817182
:1006A000244FC8E702720022C2738281002924D03D
:1006B000012181739FE782881D4EB2421D4F03D0F6
:1006C000561C8680772AB6D3C279002AB3D101227C
:1006D000C2718A40009E16430F4900964E70AAE7E9
:1006E0008679002E134FA6D0827101228A40019E86
:1006F0001643094901960E709DE7817B002900D1C0
:1007000079E782730120A8400199014302480191D1
:10071000017070E702B0F0BD6000202040000000D2
:100720008000000000010000000200000040000006
:10073000FFFF000080330A40640020208848042125
:10074000016010210160082101607047811E091FAE
:1007500000BFFCD270470000B0B5112212028358CE
:100760000124A34383500B888C781C438B8823433C
:10077000094C1C408358094D1D40631983508B79E7
:10078000CC791C43097A21437E23194080184268A2
:100790009A4351184160B0BD18670000E798FDFF0B
:1007A00010B50122120383180C789C60497881509F
:1007B00010BD0000044A801802681206FCD4816152
:1007C0000168C907FCD1704708110000F0B581B07D
:1007D0000D460178894C002909D0461CC9B2204633
:1007E000FFF7E8FF701C317800290646F6D1002D8E
:1007F0000AD0E8070DD1A80721D4680735D4280707
:100800004DD4E80659D46BE045254F274E210E46BE
:1008100057E04C212046FFF7CDFF45212046FFF74A
:10082000C9FF46212046FFF7C5FF54212046FFF7A8
:10083000C1FF20212046FFF7BDFFA807DDD54421D9
:100840002046FFF7B7FF4F212046FFF7B3FF5721A0
:100850002046FFF7AFFF4E212046FFF7ABFF2021D8
:100860002046FFF7A7FF6807C9D552212046FFF7AA
:10087000A1FF49212046FFF79DFF47212046FFF7B2
:1008800099FF48212046FFF795FF54212046FFF7A6
:1008900091FF20212046FFF78DFF2807B1D5552174
:1008A0002046FFF787FF50212046FFF783FF2021D6
:1008B0002046FFF77FFFE80612D52025442649276A
:1008C0004D212046FFF776FF20463946FFF772FF9D
:1008D00020463146FFF76EFF20462946FFF76AFFA4
:1008E0000D212046FFF766FF0A212046FFF762FF31
:1008F00001B0F0BD16480146083982220A60011F86
:10090000144A0A600146403981220A6001463C3996
:100910000A60014638390A600F49016002680260C6
:10092000816082688260C160C268C2604160426862
:1009300042600A4A4262436A43628262826A826217
:100940000162016A016206481C210160016370476F
:100950005C8042408200040081000E0081000C0097
:10096000A0120A40094800210160094801460839DF
:100970000A6803239A430A600168012291430160D7
:10098000110202688A4302607047C04608030B40A8
:1009900008010B4010B59D4C19492046FFF700FF98
:1009A00018492046FFF7D8FE0320C1031648026805
:1009B0008A4302600169154A0A40113202614169A5
:1009C00017220A4328218A434261426801210A40D2
:1009D00043688B439A1842604A04036813430360D8
:1009E000C26870231343C360C26802231343052205
:1009F0009343C36002680A43026010BD0080104048
:100A0000930C0000960C0000009110400000FFFFC6
:100A100080B500F007F8FFF76DFFFFF7A3FFFFF7C2
:100A2000B9FF80BD80B5074807494160074A51605A
:100A3000074B596007490160116019601020FFF7EA
:100A400085FE80BD00080A40030000B100280A406E
:100A500000881040010000269AB0FFF7D9FFFFF789
:100A60006DFEFFF77DFD694C0D2104912046FFF7D7
:100A7000A1FE0A2103912046FFF79CFE3D27204658
:100A80003946FFF797FE20463946FFF793FE20468A
:100A90003946FFF78FFE20463946FFF78BFE2025AB
:100AA00020462946FFF786FE6B212046FFF782FE8F
:100AB000652620463146FFF77DFE79212046FFF767
:100AC00079FE20462946FFF775FE64212046FFF790
:100AD00071FE20463146FFF76DFE62212046FFF78A
:100AE00069FE75212046FFF765FE67212046FFF766
:100AF00061FE20462946FFF75DFE73212046FFF781
:100B000059FE742620463146FFF754FE61212046E7
:100B1000FFF750FE72212046FFF74CFE204631467B
:100B2000FFF748FE20462946FFF744FE2046394697
:100B3000FFF740FE20463946FFF73CFE2046394687
:100B4000FFF738FE20463946FFF734FE2046049969
:100B5000FFF730FE20460399FFF72CFE05A8401C46
:100B60000190FF2036A7384C0546049003E0364C30
:100B70002046FFF7EBFDFFF72FFD19A8FFF7D4FC88
:100B80000028F5D019A80278E024164626404178BE
:100B90000C40E8B2864203D10498C0B2844226D009
:100BA000304620431BD002920391009405AD5021A2
:100BB000284617A23346FFF7F7FA2878002812D004
:100BC000124F019DC1B23846FFF7F4FD691C287829
:100BD00000280D46F6D13546049419A705E00020FB
:100BE0000546049003E0354604940399029A1F24B5
:100BF000224005D010A00E461146FFF7E7FD314612
:100C00002140B4D03846FFF7E1FDB0E70080104046
:100C10005741524E20756E6B6E6F776E2073686F02
:100C200072743D307825303258206C6F6E673D30DD
:100C300078253032580D0A0053484F52543A20005C
:100C40004C4F4E47203A20000071020030380A28ED
:100C500001D20120704700207047303132333435E3
:100C600036373839414243444546403058003031E8
:100C70003233343536373839616263646566403003
:100C800078000400000800000000000000020001DD
:100C900000001008000000001800000000300000F4
:100CA000B00C00000000202090010000280100008E
:04000005000000C136
:00000001FF
