:020000040000FA
:10000000900120206D0100007101000073010000CB
:1000100000000000000000000000000000000000E0
:10002000000000000000000000000000750100005A
:1000300000000000000000007701000079010000CE
:100040007B0100007B0100007B0100007B010000C0
:100050007B0100007B0100007B0100007B010000B0
:100060007B0100007B0100007B0100007B010000A0
:100070007B0100007B0100007B0100007B01000090
:100080007B0100007B0100007B0100007B01000080
:100090007B0100007B0100007B0100007B01000070
:1000A0007B0100007B0100007B0100007B01000060
:1000B0007B0100007B0100007B0100007B01000050
:1000C00000F002F800F042F812A030C808382418F6
:1000D0002D18AC4201D100F039F80FCCA246AB4646
:1000E0000CA730CF2D1B083F3F197C427F1E544484
:1000F0002D090426F441641EAC4201D300F026F819
:100100000126334200D0FB1A3343984754465D46DC
:10011000DFE700006C0700007C0700000000000023
:100120007047000000000000002300240025002686
:10013000103A01D378C1FBD8520700D330C100D5A3
:100140000B6070471FB51FBD10B510BD00F027F83C
:100150001146FFF7F7FF00F071FB00F03FF803B422
:10016000FFF7F2FF03BC00F045F800000648004727
:10017000FEE7FEE7FEE7FEE7FEE7FEE70348044989
:10018000024A044B70470000C1000000900020208C
:1001900090012020900020207047704770477546DE
:1001A00000F024F8AE46050069465346C008C0007A
:1001B000854618B020B5FFF7E1FF60BCB6460026C3
:1001C0000027C0C5C0C5C0C5C0C5C0C5C0C5C0C565
:1001D000C0C5403D490849008D46704710B50446EA
:1001E000C046C0462046FFF7BAFF10BD0048704722
:1001F0000000202001491820ABBEFEE726000200C7
:100200007047000080B55F48002101705E480170B2
:10021000012000F003FA80BDF0B581B0002865D060
:10022000584F3A78002A0DD0417810220A4001D068
:100230000021397054490B780078C0070BD1002A8F
:100240004AD14DE00178CB070AD04F4B1C78002CE7
:1002500004D0641E03E0002038703DE004241C70CC
:100260004B070AD5484B1C78641CE5B2CD266E437B
:10027000B50A05266E43A41B1C7002240557012DE8
:1002800024DB0091032028403F4B1B78042D2FD204
:1002900000283C4F16D0591CCAB2CD246243920AA2
:1002A00005256A438B1A01280CD05B1CD9B205299D
:1002B00000D10023022805D0581CC1B24C43A10A2A
:1002C0004D43431B30480370009903E02E480378E8
:1002D000002D2CD4C80601D4581C04E0012038702D
:1002E00058B22AA1085CC0B200F098F901B0F0BD84
:1002F0007C2425400024264603E0361DF1B2A942A5
:10030000C6D05B1CDFB2CD217943890A052779432A
:10031000591A891CCBB234225A43120A7A43891AD9
:100320004F1CF9B205292346E7D03B46E5E700918B
:100330006842002504E05B1E2D1D69B28142C1DACE
:10034000190601D05B1E00E004230121294349B2B4
:100350008142B7DA190601D05B1E00E0042329466A
:10036000214349B28142ADDA190601D05B1E00E09B
:1003700004230321294349B28142A3DA1906DAD1C1
:100380000423D9E78F0020208E00202007060507D0
:10039000060000000021002809D08C4A1378002BA9
:1003A00007D15378002B04D19378002B01D1084654
:1003B00070479178817051784170117801700020F8
:1003C00090705070107001210846704710B5874A30
:1003D00000209071908090709073908190729075D1
:1003E0009082907480490B685B06DB0F537013702A
:1003F0000B68DBB2DB09537213720B68DB05DB0F92
:10040000537413740B689077908390769B05DB0F81
:10041000537613760B685B04DB0F202413551446C8
:100420002034A0719084A0706370684A90705070FE
:1004300010700A68920B022313400968C903C90FA0
:10044000C9186B4A11707049087010BDF0B582B0C0
:100450005E48417800910078019000245CA5012657
:1004600005E0437200218172B61C083510342868FB
:100470005D490F680740781E3B4683415B48001981
:1004800042789A4220D18278022A03D8511C817086
:10049000022A1CD1721E0178994244D1002F16D134
:1004A000838850498B4203D0591C8180632B0ED323
:1004B000817900290BD1012181719140009A0A4371
:1004C000424900924A7002E0437000228270202C60
:1004D0004BD06968444A12680A40511E13468B414A
:1004E000417A9942BDD1877A022F03D8791C817253
:1004F000022FB9D1017A99421CD1002AB4D1828944
:1005000038498A4203D0511C8181632AACD3817B54
:100510000029A9D101218173B140009A0A432B48D7
:1005200000924270A0E703700021002F09D0817172
:100530008180CCE703720021002A0CD08173818175
:1005400092E78171818001219140019A0A431F49FC
:1005500001920A70BBE7817381810120B04001994B
:1005600001431A48019101707EE71F4A1068800B11
:10057000022101401068C003C00F40181C490A78CE
:1005800092008218D2B21B4BD340DB071BD11AA3B7
:100590009B5C1D4A1478E31813705BB2042B05DBD7
:1005A0000A4B9B787F2B0CD05B1C08E00324E443B0
:1005B000A34208DC054B9B78802B02D05B1E034CCA
:1005C000A37000231370087002B0F0BD62002020F9
:1005D0004000000080000000000100000002000058
:1005E00000400000FFFF000080330A40660020202A
:1005F000610020206996000000FF0100010000FF5B
:10060000FF0000010001FF00600020205448042189
:1006100001601021016008210160704719490A46F4
:100620001032401E062818D87844007940008744CC
:1006300003170D12071C1F0008461030024619E070
:100640000A46103208461146024613E008461030AA
:100650000A4601460EE008460CE01146104609E045
:100660000A4610320846114604E00846103000E001
:1006700008460A4604230B60102101600820106020
:100680007047C04690120A40811E091F00BFFCD26D
:1006900070470000B0B51122120283580124A34311
:1006A00083500B888C781C438B882343094C1C4057
:1006B0008358094D1D40631983508B79CC791C43B5
:1006C000097A21437E231940801842689A435118C1
:1006D0004160B0BD18670000E798FDFF10B501222A
:1006E000120383180C789C604978815010BD00007B
:1006F00017480146583982220A6001465439154A82
:100700000A600146403981220A6001463C390A608C
:10071000014638390A601049016002680260816050
:1007200082688260C160C268C260416042684260A3
:100730004162426A4262094A1160136813600162B1
:10074000016A016206481C21016001637047C046CE
:100750005C8042408200040081000C0084804240A2
:10076000A0120A40094800210160094801460839E1
:100770000A6803239A430A600168012291430160D9
:10078000110202688A4302607047C04608030B40AA
:1007900008010B4010B5124C12492046FFF79EFF8E
:1007A00011492046FFF776FF0320C1030F48026876
:1007B0008A43026001690E4A0A40113202614169AE
:1007C00017220A4328218A434261416801221140CD
:1007D000436893435918416001681143016010BD9B
:1007E000008010407408000076080000009110405E
:1007F0000000FFFF80B500F007F8FFF779FFFFF773
:10080000B1FFFFF7C7FF80BD80B5074807494160CA
:10081000074A5160074B5960074901601160196030
:100820001020FFF731FF80BD00080A40030000B12F
:1008300000280A40008810400100002682B0FFF71F
:10084000D9FFFFF7E3FEFFF7C1FDFFF7DBFC084C24
:1008500002E02046FFF718FFFFF7F8FD01A8FFF7B9
:1008600099FD0028F5D001A8FFF7D6FCF1E7C046B6
:1008700000710200080000001800000000300000B5
:1008800090080000000020209001000028010000D6
:04000005000000C136
:00000001FF
