:020000040000FA
:10000000900120207D01000081010000830100009B
:1000100000000000000000000000000000000000E0
:10002000000000000000000000000000850100004A
:1000300000000000000000008701000089010000AE
:100040008B0100008B0100008B0100008B01000080
:100050008B0100008B0100008B0100008B01000070
:100060008B0100008B0100008B0100008B01000060
:100070008B0100008B0100008B0100008B01000050
:100080008B0100008B0100008B0100008B01000040
:100090008B0100008B0100008B0100008B01000030
:1000A0008B0100008B0100008B0100008B01000020
:1000B0008B0100008B0100008B0100008B01000010
:1000C00000F002F800F04AF812A030C808382418EE
:1000D0002D18AC4201D100F041F80FCCA246AB463E
:1000E0000CA730CF2D1B083F3F197C427F1E544484
:1000F0002D090426F441641EAC4201D300F02EF811
:100100000126334200D0FB1A3343984754465D46DC
:10011000DFE70000AC0C0000BC0C00000000000099
:100120007047000000000000002300240025002686
:10013000103A01D378C1FBD8520700D330C100D5A3
:100140000B60704710B5642902D100F083F810BD30
:10015000002010BD1FB51FBD10B510BD00F040F947
:100160001146FFF7F7FF00F001FE00F058F903B465
:10017000FFF7F2FF03BC00F05FF9000006480047FC
:10018000FEE7FEE7FEE7FEE7FEE7FEE70348044979
:10019000024A044B70470000C1000000900020207C
:1001A00090012020900020200FB41CB50C0007AA5D
:1001B000009007D04142A14202D30019401E01E045
:1001C0000020C043074B7B4469460190069800F02D
:1001D000D8F80020002C01D0009908701CBC08BC85
:1001E00004B01847DF010000F8B50E4604460020B1
:1001F00020622046E1688847002829D0252802D0BF
:100200006268A16820E0E168204600278847050071
:100210001ED028464138192802D80127FF02203570
:100220003246204627602946FFF78CFF002808D079
:10023000012804D0F61DF608F6000836D9E7361D69
:10024000D7E762682846A1689047206A401CCFE73C
:10025000206AF8BDF7B5002575291068009914A625
:1002600011D0C046C046002802DA404211A608E07C
:10027000009909688A0701D50FA602E0490704D54D
:100280000EA6012501E0C046C046009F0024243789
:1002900004E000F091F830313955641C0028F8D1A1
:1002A0002B4632462146009800F00DF8FEBD0000B6
:1002B000000000002D0000002B00000020000000C6
:1002C000704770477047FFB504460D4681B0243033
:1002D00000902168880604D51022E06991432160CE
:1002E00000E00120A84201DD471B00E00027049840
:1002F000A1697A191018081AA0612078C00602D4E2
:100300002046C046C046002608E003986268A168FF
:10031000805D9047206A401C761C206204988642CB
:10032000F3DB2078C0060AD52046C046C04606E06A
:100330006268A16830209047206A401C20623846DD
:100340007F1E0028F4DC07E000986268A168405D29
:100350009047206A401C206228466D1E0028F3DC6E
:100360002046C046C0462078000602D5022005B0CF
:10037000F0BD0120FBE7000001694A1C026108781A
:10038000704700B58FB00291002105910549019396
:1003900079440391114604906846FFF725FF0FB09A
:1003A00000BD0000E5FFFFFF0CC908399A4202D2E8
:1003B000531C0B601070704701468008081A020930
:1003C0001018020A1018020C1018C0088200121827
:1003D0005200891A01E0401C0A390A29FBD27047F1
:1003E000754600F025F8AE46050069465346C0083C
:1003F000C000854618B020B5FFF7C8FE60BCB64601
:1004000000260027C0C5C0C5C0C5C0C5C0C5C0C581
:10041000C0C5C0C5403D490849008D46704710B56C
:100420000446C046C0462046FFF7A1FE10BD0000AE
:10043000004870470000202001491820ABBEFEE7AD
:100440002600020070470000F0B583B0A54C0D21D6
:100450000291204600F0CCFB0A210191204600F0D9
:10046000C7FB3D272046394600F0C2FB20463946EF
:1004700000F0BEFB2046394600F0BAFB2046394664
:1004800000F0B6FB20252046294600F0B1FB612193
:100490000091204600F0ACFB70262046314600F06B
:1004A000A7FB2046314600F0A3FB2046294600F07A
:1004B0009FFB6421204600F09BFB6521204600F055
:1004C00097FB6221204600F093FB7521204600F047
:1004D0008FFB6721204600F08BFB2046294600F069
:1004E00087FB7321204600F083FB742620463146AB
:1004F00000F07EFB2046009900F07AFB7221204636
:1005000000F076FB2046314600F072FB204629467B
:1005100000F06EFB2046394600F06AFB2046394663
:1005200000F066FB2046394600F062FB2046394663
:1005300000F05EFB2046029900F05AFB204601992C
:1005400000F056FB03B0F0BDB0B588B0002825D050
:1005500004460178002902D011A000F02FF861783C
:10056000002902D010A000F029F802202356002B09
:1005700014D06C4620210EA22046FFF715FE2078ED
:1005800000280BD069464D1C564CC1B2204600F0E5
:100590002FFB691C287800280D46F6D108B0B0BDA5
:1005A00053484F52543A20004C4F4E47203A2000B7
:1005B000454E4320203A2025640D0A00F0B581B055
:1005C0000D460178474C002909D0461CC9B2204687
:1005D00000F00EFB701C317800290646F6D1002D84
:1005E0000AD0E8070DD1A80721D4680735D4280719
:1005F0004DD4E80659D46BE045254F274E210E46D1
:1006000057E04C21204600F0F3FA4521204600F047
:10061000EFFA4621204600F0EBFA5421204600F084
:10062000E7FA2021204600F0E3FAA807DDD54421AF
:10063000204600F0DDFA4F21204600F0D9FA57217C
:10064000204600F0D5FA4E21204600F0D1FA2021B4
:10065000204600F0CDFA6807C9D55221204600F0A7
:10066000C7FA4921204600F0C3FA4721204600F08E
:10067000BFFA4821204600F0BBFA5421204600F082
:10068000B7FA2021204600F0B3FA2807B1D555214A
:10069000204600F0ADFA5021204600F0A9FA2021B2
:1006A000204600F0A5FAE80612D520254426492761
:1006B0004D21204600F09CFA2046394600F098FA79
:1006C0002046314600F094FA2046294600F090FA80
:1006D0000D21204600F08CFA0A21204600F088FA0D
:1006E00001B0F0BD0080104080B55E48002101706F
:1006F0005D480170012000F011FA80BDF0B583B0B3
:10070000002861D0574B1A78002A08D05649024673
:1007100008785178C90651D5002119704AE0077848
:10072000F90707D0504C2178002901D04D1E00E078
:100730000425257079070AD54B490C78641CE5B26D
:10074000CD266E43B50A05266E43A41B0C70022508
:100750004157454C2078012928DB02970192032557
:100760000D40042932D2002D3E4B3F4C16D0401C88
:10077000C2B2CD214A43920A05267243801A012D46
:100780000CD0401CC2B2052A00D10020022D05D099
:10079000401CC2B25143890A4E43801B207002990B
:1007A000C90609D40199002904D007E000292DD4F5
:1007B000F90601D4401C04E00121197040B22BA1BC
:1007C000085CC0B200F0AAF903B0F0BDC9B27C2643
:1007D0000E4000210F4603E03F1DBAB2B242C2D024
:1007E000401CC4B2CD2363439B0A05246343C01A53
:1007F000801CC3B234225A43120A6243801A441C3A
:10080000E0B205280846E7D02046E5E702970192C6
:100810004E42002704E0401E3F1DB9B2B142BDDA8E
:10082000010601D0401E00E004200121394389B2B5
:10083000B142B3DA010601D0401E00E0042039467F
:10084000294389B2B142A9DA010601D0401E00E075
:1008500004200321394389B2B1429FDA0106DAD17B
:100860000420D9E78F0020208E00202007060507EE
:10087000060000000021002809D0944A1378002BBC
:1008800007D15378002B04D19378002B01D108466F
:100890007047917881705178417011780170002013
:1008A00090705070107001210846704770B58F4AE3
:1008B0000020D07190809070D07390819072D0752C
:1008C0009082907488490B685B06DB0F537013703D
:1008D00093710B68DBB2DB095372137293730B686D
:1008E000DB05DC0F547414740D680B685B04DB0FBC
:1008F000202693559475D07790839076AC05E40FBD
:1009000054761476947714462034E0719084A07065
:100910006370A3716D4A9070507010700A68920BEA
:10092000022313400968C903C90FC918704A11701E
:100930007549087070BDC046F0B582B06348417813
:10094000009100780190002461A5012605E0437222
:1009500000218172B61C08351034286862490F687E
:100960000740781E3B4683416048001942789A420E
:1009700020D18278032A03D8511C8170032A1CD10C
:10098000721E0178994244D1002F16D183885549AF
:100990008B4203D0591C8180772B0ED3C17900295B
:1009A0000BD10121C1719140009A0A43474900923D
:1009B0004A7002E0437000228270202C55D0696892
:1009C000494A12680A40511E13468B41417A9942A6
:1009D000BDD1877A032F03D8791C8172032FB9D137
:1009E000017A99421FD1002AB4D182893D498A42B5
:1009F00003D0511C8181772AACD3C17B0029A9D1B6
:100A00000121C173B140009A0A43304800924270FC
:100A1000A0E736490B550023C3718380002F0BD00C
:100A200001218171C9E703720023C3738381002A06
:100A30000ED0012181738DE781790029BDD08371AA
:100A400001219140019A0A43204901920A70B4E7BA
:100A5000817B002900D17DE783730120B04001999B
:100A600001431A480191017074E71F4A1068800B16
:100A7000022101401068C003C00F40181C490A78C9
:100A800092008218D2B21B4BD340DB071BD11AA3B2
:100A90009B5C1D4A1478E31813705BB2042B05DBD2
:100AA0000A4B9B787F2B0CD05B1C08E00324E443AB
:100AB000A34208DC054B9B78802B02D05B1E034CC5
:100AC000A37000231370087002B0F0BD62002020F4
:100AD0004000000080000000000100000002000053
:100AE00000400000FFFF000080330A406600202025
:100AF000610020206996000000FF0100010000FF56
:100B0000FF0000010001FF0060002020594804217F
:100B100001601021016008210160704719490A46EF
:100B20001032401E062818D87844007940008744C7
:100B300003170D12071C1F0008461030024619E06B
:100B40000A46103208461146024613E008461030A5
:100B50000A4601460EE008460CE01146104609E040
:100B60000A4610320846114604E00846103000E0FC
:100B700008460A4604230B6010210160082010601B
:100B80007047C04690120A40811E091F00BFFCD268
:100B900070470000B0B51122120283580124A3430C
:100BA00083500B888C781C438B882343094C1C4052
:100BB0008358094D1D40631983508B79CC791C43B0
:100BC000097A21437E231940801842689A435118BC
:100BD0004160B0BD18670000E798FDFF10B5012225
:100BE000120383180C789C604978815010BD000076
:100BF000044A801802681206FCD481610168C907A2
:100C0000FCD17047081100001648014608398222BD
:100C10000A60011F144A0A600146403981220A60B5
:100C200001463C390A60014638390A600F490160C3
:100C300002680260816082688260C160C268C260CE
:100C40004160426842600A4A4262436A4362826289
:100C5000826A82620162016A016206481C210160A7
:100C6000016370475C8042408200040081000E00F6
:100C700081000C00A0120A400948002101600948C7
:100C8000014608390A6803239A430A600168012271
:100C900091430160110202688A4302607047C046B6
:100CA00008030B4008010B4010B5194C19492046A8
:100CB000FFF794FF18492046FFF76CFF0320C1039C
:100CC000164802688A4302600169154A0A401132D7
:100CD0000261416917220A4328218A43426142681E
:100CE00001210A4043688B439A1842604A04036812
:100CF00013430360C26870231343C360C2680223B6
:100D0000134305229343C36002680A43026010BD87
:100D100000801040B00D0000B20D000000911040A6
:100D20000000FFFF80B500F007F8FFF76DFFFFF749
:100D3000A3FFFFF7B9FF80BD80B5074807494160B1
:100D4000074A5160074B59600749016011601960FB
:100D50001020FFF719FF80BD00080A40030000B112
:100D600000280A40008810400100002682B0FFF7EA
:100D7000D9FFFFF7CBFEFFF799FDFFF7B5FCFFF7B3
:100D800063FB0A4C02E02046FFF7FEFEFFF7D4FDAE
:100D900001A8FFF76FFD0028F5D001AD2846FFF749
:100DA000D3FB2846FFF7AAFCEDE7C046007102001E
:100DB00008000000180000000030000000000000E3
:100DC000D00D00000000202090010000280100004C
:04000005000000C136
:00000001FF
